{
  "contractName": "SupplyChain",
  "abi": [
    {
      "inputs": [],
      "payable": false,
      "stateMutability": "nonpayable",
      "type": "constructor"
    },
    {
      "anonymous": false,
      "inputs": [
        {
          "indexed": false,
          "internalType": "uint256",
          "name": "sku",
          "type": "uint256"
        }
      ],
      "name": "LogForSale",
      "type": "event"
    },
    {
      "anonymous": false,
      "inputs": [
        {
          "indexed": false,
          "internalType": "uint256",
          "name": "sku",
          "type": "uint256"
        }
      ],
      "name": "LogReceived",
      "type": "event"
    },
    {
      "anonymous": false,
      "inputs": [
        {
          "indexed": false,
          "internalType": "uint256",
          "name": "sku",
          "type": "uint256"
        }
      ],
      "name": "LogShipped",
      "type": "event"
    },
    {
      "anonymous": false,
      "inputs": [
        {
          "indexed": false,
          "internalType": "uint256",
          "name": "sku",
          "type": "uint256"
        }
      ],
      "name": "LogSold",
      "type": "event"
    },
    {
      "constant": true,
      "inputs": [
        {
          "internalType": "uint256",
          "name": "",
          "type": "uint256"
        }
      ],
      "name": "items",
      "outputs": [
        {
          "internalType": "string",
          "name": "name",
          "type": "string"
        },
        {
          "internalType": "uint256",
          "name": "sku",
          "type": "uint256"
        },
        {
          "internalType": "uint256",
          "name": "price",
          "type": "uint256"
        },
        {
          "internalType": "enum SupplyChain.State",
          "name": "state",
          "type": "uint8"
        },
        {
          "internalType": "address payable",
          "name": "seller",
          "type": "address"
        },
        {
          "internalType": "address payable",
          "name": "buyer",
          "type": "address"
        }
      ],
      "payable": false,
      "stateMutability": "view",
      "type": "function"
    },
    {
      "constant": true,
      "inputs": [],
      "name": "owner",
      "outputs": [
        {
          "internalType": "address",
          "name": "",
          "type": "address"
        }
      ],
      "payable": false,
      "stateMutability": "view",
      "type": "function"
    },
    {
      "constant": true,
      "inputs": [],
      "name": "state",
      "outputs": [
        {
          "internalType": "enum SupplyChain.State",
          "name": "",
          "type": "uint8"
        }
      ],
      "payable": false,
      "stateMutability": "view",
      "type": "function"
    },
    {
      "constant": false,
      "inputs": [
        {
          "internalType": "string",
          "name": "_name",
          "type": "string"
        },
        {
          "internalType": "uint256",
          "name": "_price",
          "type": "uint256"
        }
      ],
      "name": "addItem",
      "outputs": [
        {
          "internalType": "bool",
          "name": "",
          "type": "bool"
        }
      ],
      "payable": false,
      "stateMutability": "nonpayable",
      "type": "function"
    },
    {
      "constant": false,
      "inputs": [
        {
          "internalType": "uint256",
          "name": "_sku",
          "type": "uint256"
        }
      ],
      "name": "buyItem",
      "outputs": [],
      "payable": true,
      "stateMutability": "payable",
      "type": "function"
    },
    {
      "constant": false,
      "inputs": [
        {
          "internalType": "uint256",
          "name": "_sku",
          "type": "uint256"
        }
      ],
      "name": "shipItem",
      "outputs": [],
      "payable": false,
      "stateMutability": "nonpayable",
      "type": "function"
    },
    {
      "constant": false,
      "inputs": [
        {
          "internalType": "uint256",
          "name": "_sku",
          "type": "uint256"
        }
      ],
      "name": "receiveItem",
      "outputs": [],
      "payable": false,
      "stateMutability": "nonpayable",
      "type": "function"
    },
    {
      "constant": true,
      "inputs": [
        {
          "internalType": "uint256",
          "name": "_sku",
          "type": "uint256"
        }
      ],
      "name": "fetchItem",
      "outputs": [
        {
          "internalType": "string",
          "name": "name",
          "type": "string"
        },
        {
          "internalType": "uint256",
          "name": "sku",
          "type": "uint256"
        },
        {
          "internalType": "uint256",
          "name": "price",
          "type": "uint256"
        },
        {
          "internalType": "uint256",
          "name": "state",
          "type": "uint256"
        },
        {
          "internalType": "address",
          "name": "seller",
          "type": "address"
        },
        {
          "internalType": "address",
          "name": "buyer",
          "type": "address"
        }
      ],
      "payable": false,
      "stateMutability": "view",
      "type": "function"
    }
  ],
  "bytecode": "0x608060405234801561001057600080fd5b50336000806101000a81548173ffffffffffffffffffffffffffffffffffffffff021916908373ffffffffffffffffffffffffffffffffffffffff16021790555060006001819055506111e3806100686000396000f3fe60806040526004361061007b5760003560e01c8063bfb231d21161004e578063bfb231d21461032b578063c19d93fb14610468578063e7fb74c7146104a1578063f61c899a146104cf5761007b565b806362d6bbdf146100805780638da5cb5b1461016a578063a26be999146101c1578063ad4b9cfb146101fc575b600080fd5b34801561008c57600080fd5b50610150600480360360408110156100a357600080fd5b81019080803590602001906401000000008111156100c057600080fd5b8201836020820111156100d257600080fd5b803590602001918460018302840111640100000000831117156100f457600080fd5b91908080601f016020809104026020016040519081016040528093929190818152602001838380828437600081840152601f19601f8201169050808301925050505050505091929192908035906020019092919050505061050a565b604051808215151515815260200191505060405180910390f35b34801561017657600080fd5b5061017f6106c2565b604051808273ffffffffffffffffffffffffffffffffffffffff1673ffffffffffffffffffffffffffffffffffffffff16815260200191505060405180910390f35b3480156101cd57600080fd5b506101fa600480360360208110156101e457600080fd5b81019080803590602001909291905050506106e7565b005b34801561020857600080fd5b506102356004803603602081101561021f57600080fd5b81019080803590602001909291905050506108c6565b60405180806020018781526020018681526020018581526020018473ffffffffffffffffffffffffffffffffffffffff1673ffffffffffffffffffffffffffffffffffffffff1681526020018373ffffffffffffffffffffffffffffffffffffffff1673ffffffffffffffffffffffffffffffffffffffff168152602001828103825288818151815260200191508051906020019080838360005b838110156102eb5780820151818401526020810190506102d0565b50505050905090810190601f1680156103185780820380516001836020036101000a031916815260200191505b5097505050505050505060405180910390f35b34801561033757600080fd5b506103646004803603602081101561034e57600080fd5b8101908080359060200190929190505050610a71565b604051808060200187815260200186815260200185600381111561038457fe5b60ff1681526020018473ffffffffffffffffffffffffffffffffffffffff1673ffffffffffffffffffffffffffffffffffffffff1681526020018373ffffffffffffffffffffffffffffffffffffffff1673ffffffffffffffffffffffffffffffffffffffff168152602001828103825288818151815260200191508051906020019080838360005b8381101561042857808201518184015260208101905061040d565b50505050905090810190601f1680156104555780820380516001836020036101000a031916815260200191505b5097505050505050505060405180910390f35b34801561047457600080fd5b5061047d610b92565b6040518082600381111561048d57fe5b60ff16815260200191505060405180910390f35b6104cd600480360360208110156104b757600080fd5b8101908080359060200190929190505050610ba5565b005b3480156104db57600080fd5b50610508600480360360208110156104f257600080fd5b8101908080359060200190929190505050610ed1565b005b60007f4627c48065af2a9648cbecdd4b9da340c00e501243cd49a8a71c30c987e8b7616001546040518082815260200191505060405180910390a16040518060c0016040528084815260200160015481526020018381526020016000600381111561057157fe5b81526020013373ffffffffffffffffffffffffffffffffffffffff168152602001600073ffffffffffffffffffffffffffffffffffffffff1681525060026000600154815260200190815260200160002060008201518160000190805190602001906105de9291906110af565b50602082015181600101556040820151816002015560608201518160030160006101000a81548160ff0219169083600381111561061757fe5b021790555060808201518160030160016101000a81548173ffffffffffffffffffffffffffffffffffffffff021916908373ffffffffffffffffffffffffffffffffffffffff16021790555060a08201518160040160006101000a81548173ffffffffffffffffffffffffffffffffffffffff021916908373ffffffffffffffffffffffffffffffffffffffff16021790555090505060018054016001819055506001905092915050565b6000809054906101000a900473ffffffffffffffffffffffffffffffffffffffff1681565b80600260038111156106f557fe5b6002600083815260200190815260200160002060030160009054906101000a900460ff16600381111561072457fe5b14610797576040517f08c379a00000000000000000000000000000000000000000000000000000000081526004018080602001828103825260138152602001807f4974656d206973206e6f7420736869707065640000000000000000000000000081525060200191505060405180910390fd5b6002600083815260200190815260200160002060040160009054906101000a900473ffffffffffffffffffffffffffffffffffffffff168073ffffffffffffffffffffffffffffffffffffffff163373ffffffffffffffffffffffffffffffffffffffff1614610852576040517f08c379a00000000000000000000000000000000000000000000000000000000081526004018080602001828103825260268152602001806111556026913960400191505060405180910390fd5b60036002600085815260200190815260200160002060030160006101000a81548160ff0219169083600381111561088557fe5b02179055507f5a98827d06afe0e04647b3aed26f1ffb77171ad9ac41603c4ef623a6638798c1836040518082815260200191505060405180910390a1505050565b60606000806000806000600260008881526020019081526020016000206000018054600181600116156101000203166002900480601f01602080910402602001604051908101604052809291908181526020018280546001816001161561010002031660029004801561097a5780601f1061094f5761010080835404028352916020019161097a565b820191906000526020600020905b81548152906001019060200180831161095d57829003601f168201915b5050505050955060026000888152602001908152602001600020600101549450600260008881526020019081526020016000206002015493506002600088815260200190815260200160002060030160009054906101000a900460ff1660038111156109e257fe5b92506002600088815260200190815260200160002060030160019054906101000a900473ffffffffffffffffffffffffffffffffffffffff1691506002600088815260200190815260200160002060040160009054906101000a900473ffffffffffffffffffffffffffffffffffffffff16905085858585858595509550955095509550955091939550919395565b6002602052806000526040600020600091509050806000018054600181600116156101000203166002900480601f016020809104026020016040519081016040528092919081815260200182805460018160011615610100020316600290048015610b1d5780601f10610af257610100808354040283529160200191610b1d565b820191906000526020600020905b815481529060010190602001808311610b0057829003601f168201915b5050505050908060010154908060020154908060030160009054906101000a900460ff16908060030160019054906101000a900473ffffffffffffffffffffffffffffffffffffffff16908060040160009054906101000a900473ffffffffffffffffffffffffffffffffffffffff16905086565b600360009054906101000a900460ff1681565b8060006003811115610bb357fe5b6002600083815260200190815260200160002060030160009054906101000a900460ff166003811115610be257fe5b148015610c0657506000600260008381526020019081526020016000206002015414155b610c78576040517f08c379a00000000000000000000000000000000000000000000000000000000081526004018080602001828103825260148152602001807f4974656d206973206e6f7420666f722073616c6500000000000000000000000081525060200191505060405180910390fd5b8180341015610cd2576040517f08c379a000000000000000000000000000000000000000000000000000000000815260040180806020018281038252603481526020018061117b6034913960400191505060405180910390fd5b82336002600086815260200190815260200160002060040160006101000a81548173ffffffffffffffffffffffffffffffffffffffff021916908373ffffffffffffffffffffffffffffffffffffffff16021790555060016002600086815260200190815260200160002060030160006101000a81548160ff02191690836003811115610d5b57fe5b02179055506002600085815260200190815260200160002060030160019054906101000a900473ffffffffffffffffffffffffffffffffffffffff1673ffffffffffffffffffffffffffffffffffffffff166108fc60026000878152602001908152602001600020600201549081150290604051600060405180830381858888f19350505050158015610df2573d6000803e3d6000fd5b507fe64ca8c671e48636f85f3008c1dd538e36bfa74fb6f2790b56b72fcc33b879ef846040518082815260200191505060405180910390a1600060026000838152602001908152602001600020600201549050600081340390506002600084815260200190815260200160002060040160009054906101000a900473ffffffffffffffffffffffffffffffffffffffff1673ffffffffffffffffffffffffffffffffffffffff166108fc829081150290604051600060405180830381858888f19350505050158015610ec8573d6000803e3d6000fd5b50505050505050565b8060016003811115610edf57fe5b6002600083815260200190815260200160002060030160009054906101000a900460ff166003811115610f0e57fe5b14610f81576040517f08c379a00000000000000000000000000000000000000000000000000000000081526004018080602001828103825260108152602001807f4974656d206973206e6f7420736f6c640000000000000000000000000000000081525060200191505060405180910390fd5b6002600083815260200190815260200160002060030160019054906101000a900473ffffffffffffffffffffffffffffffffffffffff168073ffffffffffffffffffffffffffffffffffffffff163373ffffffffffffffffffffffffffffffffffffffff161461103c576040517f08c379a00000000000000000000000000000000000000000000000000000000081526004018080602001828103825260268152602001806111556026913960400191505060405180910390fd5b600280600085815260200190815260200160002060030160006101000a81548160ff0219169083600381111561106e57fe5b02179055507feaf695929fec8154f0eafe7248c0e16855eb9ad09e623be92f669e544d53e856836040518082815260200191505060405180910390a1505050565b828054600181600116156101000203166002900490600052602060002090601f016020900481019282601f106110f057805160ff191683800117855561111e565b8280016001018555821561111e579182015b8281111561111d578251825591602001919060010190611102565b5b50905061112b919061112f565b5090565b61115191905b8082111561114d576000816000905550600101611135565b5090565b9056fe4d6573736167652073656e646572206973206e6f74207265717569726564206164647265737374686520637573746f6d657220646964206e6f742073656e6420656e6f75676820746f2070617920666f7220746865206974656da265627a7a723158206124d7772b75e8fa6f0df03c0f5ad021bd4fc3b7ac136e0c98868272f8efe38b64736f6c634300050c0032",
  "source": "pragma solidity ^0.5.0;\n\ncontract SupplyChain {\n\n  // @dev Owner of the contract\n  address public owner;\n\n  // @dev Tracks the most recent sku number\n  uint internal skuCount;\n\n  // @dev Maps sku numbers to their associated Item\n  mapping (uint => Item) public items;\n\n  // @dev Represents the possible states of an Item\n  enum State { ForSale, Sold, Shipped, Received }\n  State public state;\n\n  // @dev Goods handled by the supply chain\n  struct Item {\n    string name;\n    uint sku;\n    uint price;\n    State state;\n    address payable seller;\n    address payable buyer;\n  }\n\n  // @dev Events correspond to each possible state\n  event LogForSale(uint sku);\n  event LogSold(uint sku);\n  event LogShipped(uint sku);\n  event LogReceived(uint sku);\n\n  // @dev Checks if the msg.sender is the owner of the contract\n  modifier onlyOwner () {\n    require(msg.sender == owner, \"Message sender is not owner of contract\");\n     _;\n  }\n\n  // @dev Checks if the message sender is a specfic address\n  // @param _address The address the message is supposed to come from\n  modifier verifyCaller (address _address) {\n    require (msg.sender == _address, \"Message sender is not required address\");\n    _;\n  }\n\n  // @dev Checks if the customer sent enough to pay for items\n  // @param _price The price of the item\n  modifier paidEnough(uint _price) {\n    require(msg.value >= _price, \"the customer did not send enough to pay for the item\");\n     _;\n  }\n    \n  // @dev Refunds buyers that overpay for items\n  // @param _sku Sku number of purchased item\n  modifier checkValue(uint _sku) {\n    _;\n    uint _price = items[_sku].price;\n    uint amountToRefund = msg.value - _price;\n    items[_sku].buyer.transfer(amountToRefund);\n  }\n\n  // @dev Checks that state of item is ForSale\n  // @param _sku Sku number of item to be checked\n  modifier forSale (uint _sku) {\n    require(items[_sku].state == State.ForSale && items[_sku].price != 0, \"Item is not for sale\");\n    _;\n  }\n\n  // @dev Checks that state of item is Sold\n  // @param _sku Sku number of item to be checked\n  modifier sold (uint _sku) {\n    require(items[_sku].state == State.Sold , \"Item is not sold\");\n    _;\n  }\n\n  // @dev Checks that state of item is Shipped\n  // @param _sku Sku number of item to be checked\n  modifier shipped (uint _sku) {\n    require(items[_sku].state == State.Shipped , \"Item is not shipped\");\n    _;\n  }\n\n  // @dev Checks that state of item is Received\n  // @param _sku Sku number of item to be checked\n  modifier received (uint _sku) {\n    require(items[_sku].state == State.Received , \"Item is not received\");\n    _;\n  }\n\n  // @dev Sets owner to the address that instantiated the contract\n  constructor() public {\n    owner = msg.sender;\n    skuCount = 0;\n  }\n\n  // @dev Adds item to goods for sale\n  // @param _name Name of item\n  // @param _price Price of item\n  function addItem(string memory _name, uint _price) public returns(bool) {\n    emit LogForSale(skuCount);\n    items[skuCount] = Item({name: _name, sku: skuCount, price: _price, state: State.ForSale, seller: msg.sender, buyer: address(0)});\n    skuCount = skuCount + 1;\n    return true;\n  }\n\n  // @dev Called by the buyer to purchase an item\n  // @param _sku Sku number of item being purchased\n  function buyItem(uint _sku)\n    public\n    payable\n    forSale(_sku)\n    paidEnough(_sku)\n    checkValue(_sku)\n  {\n    items[_sku].buyer = msg.sender;\n    items[_sku].state = State.Sold;\n    items[_sku].seller.transfer(items[_sku].price);\n    emit LogSold(_sku);\n  }\n\n  // @dev Called by the seller to ship an item\n  // @param _sku Sku number of item being purchased\n  function shipItem(uint _sku)\n    public\n    sold(_sku)\n    verifyCaller(items[_sku].seller)\n  {\n    items[_sku].state = State.Shipped;\n    emit LogShipped(_sku);\n  }\n\n  // @dev Called by the buyerer to receive an item\n  // @param _sku Sku number of item being received\n  function receiveItem(uint _sku)\n    public\n    shipped(_sku)\n    verifyCaller(items[_sku].buyer)\n  {\n    items[_sku].state = State.Received;\n    emit LogReceived(_sku);\n  }\n\n  // @dev This function included only for use in running tests\n  function fetchItem(uint _sku) public view returns (string memory name, uint sku, uint price, uint state, address seller, address buyer) {\n    name = items[_sku].name;\n    sku = items[_sku].sku;\n    price = items[_sku].price;\n    state = uint(items[_sku].state);\n    seller = items[_sku].seller;\n    buyer = items[_sku].buyer;\n    return (name, sku, price, state, seller, buyer);\n  }\n}\n",
  "sourcePath": "/Users/jerryfireman/Projects/consensys-academy/supply-chain-exercise-JerryFireman/contracts/SupplyChain.sol",
  "compiler": {
    "name": "solc",
    "version": "0.5.12+commit.7709ece9.Emscripten.clang"
  },
  "schemaVersion": "3.0.19",
  "updatedAt": "2019-12-05T18:35:04.459Z",
  "networkType": "ethereum",
  "devdoc": {
    "methods": {}
  },
  "userdoc": {
    "methods": {}
  }
}